:020000040000FA
:100000000C9462000C948A000C948A000C948A0070
:100010000C948A000C948A000C948A000C948A0038
:100020000C948A000C948A000C948A000C948A0028
:100030000C948A000C942C0A0C948A000C948A006C
:100040000C946B080C948A000C94DB080C94B50893
:100050000C948A000C948A000C948A000C948A00F8
:100060000C940D090C948A00000000002300260067
:10007000290000000008000201000003040700003E
:1000800000000000000000000000250028002B00F8
:1000900000000000240027002A00040404040404D3
:1000A0000404020202020202030303030303010227
:1000B00004081020408001020408102001020408F6
:1000C0001020530A11241FBECFEFD8E0DEBFCDBFF2
:1000D00011E0A0E0B1E0E0EFFBE102C005900D927D
:1000E000A833B107D9F722E0A8E3B1E001C01D921F
:1000F000A23CB207E1F710E0C2E6D0E004C02197CD
:10010000FE010E94F00DC136D107C9F70E948C0A8A
:100110000C94F60D0C94000090E0FC01E255FF4FAA
:10012000249186569F4FFC018491882399F090E09A
:10013000880F991FFC01E057FF4FA591B491FC0176
:10014000EA57FF4F859194918FB7F894EC91E22B89
:10015000EC938FBF0895833081F028F4813099F0BB
:100160008230A9F008958730A9F08830C9F0843032
:10017000B1F4809180008F7D03C0809180008F77E3
:1001800080938000089584B58F7784BD089584B5E9
:100190008F7DFBCF8091B0008F778093B000089562
:1001A0008091B0008F7DF9CFCF93DF93282F30E07F
:1001B000F901EE58FF4F8491F901E255FF4FD491B8
:1001C000F901E656FF4FC491CC23A1F081110E94A2
:1001D000AB00EC2FF0E0EE0FFF1FE859FF4FA591A9
:1001E000B491EC91ED2381E090E009F480E0DF919F
:1001F000CF91089580E090E0FACF1F93CF93DF93E3
:10020000282F30E0F901EE58FF4F8491F901E255B3
:10021000FF4FD491F901E656FF4FC491CC23A9F0CA
:10022000162F81110E94AB00EC2FF0E0EE0FFF1FA4
:10023000EA57FF4FA591B4918FB7F894EC91111143
:1002400008C0D095DE23DC938FBFDF91CF911F9143
:100250000895DE2BF8CF3FB7F89480911502909166
:100260001602A0911702B091180226B5A89B05C0EE
:100270002F3F19F00196A11DB11D3FBFBA2FA92F25
:10028000982F8827BC01CD01620F711D811D911D22
:1002900042E0660F771F881F991F4A95D1F708958E
:1002A0008F929F92AF92BF92CF92DF92EF92FF9286
:1002B0004B015C010E942B016B017C010E942B0110
:1002C0006C197D098E099F09683E7340810591056F
:1002D000A8F321E0821A9108A108B10888EEC80E9F
:1002E00083E0D81EE11CF11C81149104A104B10427
:1002F00029F7FF90EF90DF90CF90BF90AF909F9045
:100300008F90089508950895AF92BF92CF92DF9293
:10031000EF92FF920F931F93CF93DF936C017B01BA
:100320008B01040F151FEB015E01AE18BF08C0174B
:10033000D10759F06991D601ED91FC910190F081BE
:10034000E02DC6010995892B79F7C501DF91CF9181
:100350001F910F91FF90EF90DF90CF90BF90AF90E3
:100360000895FC01538D448D252F30E0842F90E0BB
:10037000821B930B541710F0CF96089501970895A0
:10038000FC01918D828D981761F0A28DAE0FBF2F69
:10039000B11D5D968C91928D9F5F9F73928F90E0BF
:1003A00008958FEF9FEF0895FC01918D828D98172E
:1003B00031F0828DE80FF11D858D90E008958FEF6B
:1003C0009FEF0895FC01918D228D892F90E0805C34
:1003D0009F4F821B91098F739927089589E192E0BD
:1003E0000E94E20121E0892B09F420E0822F089588
:1003F00080E090E0892B29F00E94EE0181110C949D
:1004000000000895FC01A48DA80FB92FB11DA35AB7
:10041000BF4F2C91848D90E001968F739927848F24
:10042000A689B7892C93A089B1898C918370806447
:100430008C93938D848D981306C00288F389E02DE8
:1004400080818F7D80830895EF92FF920F931F9399
:10045000CF93DF93EC0181E0888F9B8D8C8D981377
:100460001AC0E889F989808185FF15C09FB7F89483
:10047000EE89FF896083E889F989808183708064CF
:1004800080839FBF81E090E0DF91CF911F910F911A
:10049000FF90EF900895F62E0B8D10E00F5F1F4F29
:1004A0000F731127E02E8C8D8E110CC00FB607FC38
:1004B000FACFE889F989808185FFF5CFCE010E94C6
:1004C0000202F1CFEB8DEC0FFD2FF11DE35AFF4F30
:1004D000F0829FB7F8940B8FEA89FB898081806254
:1004E000CFCFCF93DF93EC01888D8823B9F0AA8911
:1004F000BB89E889F9898C9185FD03C0808186FDDF
:100500000DC00FB607FCF7CF8C9185FFF2CF80812D
:1005100085FFEDCFCE010E940202E9CFDF91CF919E
:10052000089520917E01260F3327331F2132310594
:10053000ECF42091A201FC0190E080E0243069F00D
:1005400082E00895A0917E012191AC01425A5E4F54
:10055000A40FB52FB11D2C930196861798F38091A7
:100560007E01680F60937E0180E0089581E0089528
:100570001092A20181E08093A4011092A30161E096
:1005800082E10E94FD0061E083E10E94FD00E9EB51
:10059000F0E080818E7F808380818D7F808388E4FE
:1005A0008093B80085E48093BC0008950895E0919D
:1005B000CF018091CE01E81730F4F0E0E85CFE4F07
:1005C000808190E008958FEF9FEF08959091CF0183
:1005D0008091CE012FEF3FEF981748F4E92FF0E01C
:1005E000E85CFE4F208130E09F5F9093CF01C9010E
:1005F00008958091CE019091CF01891B990B0895A8
:10060000CF93DF93CB01EA01642F0E949102CE01C8
:10061000DF91CF910895CF93DF931F92CDB7DEB7CF
:10062000698361E0CE0101960E94910281E090E031
:100630000F90DF91CF91089590E080E00895CF93DF
:10064000DF9380910E0290910F02009709F0B8C3DA
:100650008091D6019091D70101968B3091053CF4A1
:100660009093D7018093D601DF91CF910895109296
:10067000D7011092D60180910A0290910B02009747
:1006800009F085C08091F6019091F70118161906BE
:10069000ACF501979093F7018093F6016AE070E062
:1006A0000E94C80D660F771FFB01E050FF4F2081AD
:1006B00031813093DF012093DE01FC01EE0FFF1F3B
:1006C000E050FF4F808191819093DD018093DC01A8
:1006D0003093DB012093DA019093D9018093D80104
:1006E00061E082E00E94FD0060E084E00E94FD0085
:1006F00060E083E00E94FD0060E089C08091FE011F
:100700009091FF019093F7018093F6018091F80199
:100710009091F9019093E9018093E8016AE070E01B
:100720000E94C80D660F771FFB01E050FF4F20812C
:1007300031813093DF012093DE01FC01EE0FFF1FBA
:10074000E050FF4F808191819093DD018093DC0127
:100750003093DB012093DA019093D9018093D80183
:1007600060E084E00E94FD0061E082E00E94FD0004
:1007700060E083E00E94FD0061E089E00E94FD00EE
:1007800081E090E090930B0280930A0243C0813095
:10079000910509F0CCC08091E8019091E90118160B
:1007A00019060CF07FC001979093E9018093E8014E
:1007B0006AE070E00E94C80D660F771FFB01E050F1
:1007C000FF4F208131813093DF012093DE01FC0156
:1007D000EE0FFF1FE050FF4F808191819093DD016C
:1007E0008093DC013093DB012093DA019093D901EF
:1007F0008093D80161E082E00E94FD0060E084E027
:100800000E94FD0060E083E00E94FD0061E089E05D
:100810000E94FD00C0910802D0910902209709F0C2
:10082000AEC18091F0019091F101181619060CF0FB
:100830007FC101979093F1018093F0016AE070E02D
:100840000E94C80D660F771FFB01E050FF4F20810B
:1008500031813093E7012093E601FC01EE0FFF1F89
:10086000E050FF4F808191819093E5018093E401F6
:100870003093E3012093E2019093E1018093E00142
:1008800061E087E00E94FD0060E085E00E94FD00DD
:1008900060E086E00E94FD0061E088E0DF91CF919A
:1008A0000C94FD008091FC019091FD019093F50165
:1008B0008093F4012091F8013091F9013093E9011E
:1008C0002093E8016AE070E00E94C80D660F771F70
:1008D000FB01E050FF4F208131813093DF012093F5
:1008E000DE01FC01EE0FFF1FE050FF4F8081918180
:1008F0009093DD018093DC013093DB012093DA01DA
:100900009093D9018093D80161E084E00E94FD00BA
:1009100060E082E00E94FD0060E083E00E94FD0054
:1009200060E089E00E94FD0082E090E02BCF823001
:10093000910509F07AC08091F4019091F5011816A3
:10094000190674F501979093F5018093F4016AE01C
:1009500070E00E94C80D660F771FFB01E050FF4F4B
:10096000208131813093DF012093DE01FC01EE0F05
:10097000FF1FE050FF4F808191819093DD018093B4
:10098000DC013093DB012093DA019093D90180934D
:10099000D80161E084E00E94FD0060E082E0A6CE24
:1009A0008091FA019091FB019093F3018093F20101
:1009B0002091FC013091FD013093F5012093F40169
:1009C0006AE070E00E94C80D660F771FFB01E050DF
:1009D000FF4F208131813093DF012093DE01FC0144
:1009E000EE0FFF1FE050FF4F808191819093DD015A
:1009F0008093DC013093DB012093DA019093D901DD
:100A00008093D80161E083E00E94FD0060E082E015
:100A10000E94FD0060E084E00E94FD0060E089E04B
:100A20000E94FD0083E090E0ADCE039709F0F2CE86
:100A30008091F2019091F3011816190694F501972F
:100A40009093F3018093F2016AE070E00E94C80D78
:100A5000660F771FFB01E050FF4F208131813093FB
:100A6000DF012093DE01FC01EE0FFF1FE050FF4F7E
:100A7000808191819093DD018093DC013093DB01D3
:100A80002093DA019093D9018093D80161E083E04B
:100A90000E94FD0060E082E00E94FD0060E084E0D2
:100AA00029CE8091FA019091FB019093F3018093FC
:100AB000F2018091FE019091FF019093F7018093E4
:100AC000F6016AE070E00E94C80D660F771FFB0117
:100AD000E050FF4F208131813093DF012093DE0110
:100AE000FC01EE0FFF1FE050FF4F8081918190933A
:100AF000DD018093DC013093DB012093DA019093D8
:100B0000D9018093D80161E082E00E94FD0060E09D
:100B100084E00E94FD0060E083E00E94FD0060E050
:100B200089E00E94FD0010920B0210920A0272CE20
:100B300080910402909105029093ED018093EC0165
:100B400080910002909101029093F1018093F00155
:100B500061E085E00E94FD0060E087E00E94FD000A
:100B600060E086E00E94FD0060E088E00E94FD00F9
:100B700081E090E0909309028093080275CDC13026
:100B8000D10509F05FC08091EC019091ED0118163C
:100B90001906ACF501979093ED018093EC016AE0A2
:100BA00070E00E94C80D660F771FFB01E050FF4FF9
:100BB000208131813093E7012093E601FC01EE0FA3
:100BC000FF1FE050FF4F808191819093E50180935A
:100BD000E4013093E3012093E2019093E1018093DB
:100BE000E00161E085E00E94FD0060E086E00E9497
:100BF000FD0060E087E00E94FD0060E04ECE809145
:100C00000402909105029093ED018093EC01809194
:100C10000202909103029093EB018093EA0161E05C
:100C200086E00E94FD0060E085E00E94FD0060E03B
:100C300087E00E94FD0060E088E00E94FD0082E005
:100C400090E098CFC230D10509F058C08091EA01F8
:100C50009091EB011816190674F501979093EB012A
:100C60008093EA016AE070E00E94C80D660F771F6A
:100C7000FB01E050FF4F208131813093E701209349
:100C8000E601FC01EE0FFF1FE050FF4F80819181D4
:100C90009093E5018093E4013093E3012093E20116
:100CA0009093E1018093E00161E086E00E94FD0005
:100CB00060E085E09CCF80910602909107029093BE
:100CC000EF018093EE0180910202909103029093D4
:100CD000EB018093EA0161E087E00E94FD0060E0A3
:100CE00085E00E94FD0060E086E00E94FD0060E07B
:100CF00088E00E94FD0083E090E03CCFC330D10546
:100D000009F0B2CC8091EE019091EF01181619060E
:100D100094F501979093EF018093EE016AE070E003
:100D20000E94C80D660F771FFB01E050FF4F208126
:100D300031813093E7012093E601FC01EE0FFF1FA4
:100D4000E050FF4F808191819093E5018093E40111
:100D50003093E3012093E2019093E1018093E0015D
:100D600061E087E00E94FD0060E085E00E94FD00F8
:100D700060E086E040CF8091060290910702909358
:100D8000EF018093EE018091000290910102909317
:100D9000F1018093F00160E085E00E94FD0061E0D8
:100DA00087E00E94FD0060E086E00E94FD0061E0B7
:100DB00088E00E94FD00D0930902C093080254CC41
:100DC000029709F051CC8091D6019091D7010196FC
:100DD0009093D7018093D60185309105DCF460E0D3
:100DE00082E00E94FD0060E084E00E94FD0060E07F
:100DF00083E00E94FD0060E085E00E94FD0060E06D
:100E000087E00E94FD0060E086E00E94FD0060E057
:100E100089E0F1CE0997B4F460E082E00E94FD0021
:100E200060E084E00E94FD0061E083E00E94FD003C
:100E300060E085E00E94FD0060E087E00E94FD0028
:100E400061E0E2CF1092D7011092D6010DCC0F9342
:100E50001F93CF93DF938C01C8E0D0E061E007FFE0
:100E600060E08AE00E94FD0061E08BE00E94FD00EE
:100E700060E08BE00E94FD00000F111F219771F7C9
:100E8000DF91CF911F910F910895CF93DF93EB01E5
:100E90000E942707CE010E94270761E08CE00E9494
:100EA000FD00CFE0D0E0CE010197F1F760E08CE0EB
:100EB0000E94FD002197F1F7DF91CF910895EF9205
:100EC000FF920F931F93CF93DF937C01D0E0C0E09C
:100ED0000091E6011091E7016EEF70E0C8010E94F9
:100EE000450761E070E080E090E00E9450016FEF04
:100EF00070E0C8010E9445070091E4011091E501EE
:100F00006DEF70E0C8010E94450761E070E080E08D
:100F100090E00E9450016FEF70E0C8010E94450709
:100F20000091E2011091E3016BEF70E0C8010E94B3
:100F3000450761E070E080E090E00E9450016FEFB3
:100F400070E0C8010E9445070091E0011091E101A5
:100F500067EF70E0C8010E94450761E070E080E043
:100F600090E00E9450016FEF70E0C8010E944507B9
:100F70000091DE011091DF016FEE70E0C8010E9468
:100F8000450761E070E080E090E00E9450016FEF63
:100F900070E0C8010E9445070091DC011091DD015D
:100FA0006FED70E0C8010E94450761E070E080E0ED
:100FB00090E00E9450016FEF70E0C8010E94450769
:100FC0000091DA011091DB016FEB70E0C8010E9423
:100FD000450761E070E080E090E00E9450016FEF13
:100FE00070E0C8010E9445070091D8011091D90115
:100FF0006FE770E0C8010E94450761E070E080E0A3
:1010000090E00E9450016FEF70E0C8010E94450718
:101010002196EC16FD0609F05BCFDF91CF911F9171
:101020000F91FF90EF900895CF93DF9385ED80931C
:10103000BC0080915A0190915B01A0915C01B0913C
:101040005D010796A11DB11D23E0B695A795979563
:1010500087952A95D1F72091BC0024FD03C01092FA
:10106000A20136C040915A0150915B0160915C0130
:1010700070915D01452B462B472B69F30097A10525
:10108000B10541F02AE22A95F1F700C00197A109C4
:10109000B109E1CF8091590191E0909358018823E3
:1010A000B9F0C091B800D091BA008091BC008A7BA1
:1010B0008093BC0060E082E10E94FD0060E083E17B
:1010C0000E94FD000E94B802D093BA00C093B800FD
:1010D000DF91CF9108951F920F920FB60F921124B6
:1010E0002F933F938F939F93AF93BF938091110260
:1010F00090911202A0911302B0911402309110024B
:1011000023E0230F2D3758F50196A11DB11D209323
:1011100010028093110290931202A0931302B093D5
:1011200014028091150290911602A0911702B091BD
:1011300018020196A11DB11D80931502909316020D
:10114000A0931702B0931802BF91AF919F918F9116
:101150003F912F910F900FBE0F901F90189526E88A
:10116000230F0296A11DB11DD2CF1F920F920FB671
:101170000F9211242F933F934F935F936F937F931D
:101180008F939F93AF93BF93EF93FF9389E192E087
:101190000E940202FF91EF91BF91AF919F918F91B9
:1011A0007F916F915F914F913F912F910F900FBE63
:1011B0000F901F9018951F920F920FB60F92112447
:1011C0002F938F939F93EF93FF93E0912902F091D8
:1011D0002A028081E0912F02F091300282FD1BC033
:1011E0009081809132028F5F8F732091330282173A
:1011F00041F0E0913202F0E0E75EFD4F958F809381
:101200003202FF91EF919F918F912F910F900FBE1E
:101210000F901F9018958081F4CF1F920F920FB6F8
:101220000F9211242F933F934F935F936F937F936C
:101230008F939F93AF93BF93EF93FF938091B900E8
:10124000887F803609F44AC0F0F5883209F4A7C0D7
:1012500018F5803109F49BC0B8F4882309F4F9C06B
:10126000883009F494C0FF91EF91BF91AF919F91A5
:101270008F917F916F915F914F913F912F910F903F
:101280000FBE0F901F901895883109F488C08032E6
:1012900051F78093A10114C0803409F49DC040F43B
:1012A0008033B9F38833F9F68093A10185ECB0C09F
:1012B000803509F485C0883509F496C0883499F6DC
:1012C0000E941408D0CF883909F48CC038F58837CB
:1012D00029F050F4883611F0803729F683E08093A6
:1012E000A2011092A00157C0883809F47BC0803950
:1012F00019F0803809F0B7CF8091A001803208F052
:1013000071C0E091A00181E08E0F8093A0018091D7
:10131000BB00F0E0E058FE4F80833DC0803B39F0D9
:10132000E0F4803A09F479C0883A09F09CCF84E06F
:101330008093A20110927F0110927E01E091CA0178
:10134000F091CB01099580917E0181110FC081E060
:1013500080937E0110925E0109C0803C09F4A6CF03
:10136000883C09F4A3CF883B09F07DCFE0917F0151
:1013700081E08E0F80937F01F0E0E25AFE4F808182
:101380008093BB0090917F0180917E0129C0809164
:10139000C7018093BB0085EC8093BC0064CF909123
:1013A000C6018091C501981758F5E091C60181E00A
:1013B0008E0F8093C601F0E0EB55FE4F8081E9CFA0
:1013C000E091C60181E08E0F8093C6018091BB0041
:1013D000F0E0EB55FE4F80839091C6018091C501EE
:1013E0009817C8F285E8D8CFE091C60181E08E0F4A
:1013F0008093C6018091BB00F0E0EB55FE4F8083E7
:101400008091A40181115CCF81E08093A30184EAE3
:101410008093BC001092A20126CF85EC8093BC0083
:101420001092A2018091A001803230F4E091A001DD
:10143000F0E0E058FE4F10826091A00170E0E09172
:10144000C801F091C90180E891E009951092A001CE
:101450000ACF1092A10134CF1F920F920FB60F92B4
:1014600011242F933F934F935F936F937F938F93A9
:101470009F93AF93BF93EF93FF93E091D401F091CB
:10148000D5010995FF91EF91BF91AF919F918F91F8
:101490007F916F915F914F913F912F910F900FBE70
:1014A0000F901F901895E9E1F2E01382128288EE06
:1014B00093E0A0E0B0E084839583A683B78328E11E
:1014C00031E03183208325EC30E03587248724EC1C
:1014D00030E03787268720EC30E0318B208B21EC01
:1014E00030E0338B228B22EC30E0358B248B26ECE2
:1014F00030E0378B268B118E128E138E148EE6EB16
:10150000F2E01382128284839583A683B7838AE2F2
:1015100091E0918380830895789484B5826084BD3E
:1015200084B5816084BD85B5826085BD85B58160E7
:1015300085BD80916E00816080936E001092810065
:101540008091810082608093810080918100816020
:1015500080938100809180008160809380008091E1
:10156000B10084608093B1008091B000816080936D
:10157000B00080917A00846080937A0080917A0034
:10158000826080937A0080917A00816080937A00F3
:1015900080917A00806880937A001092C100E09177
:1015A0002902F0912A0282E08083E0912502F091E5
:1015B00026021082E0912702F09128028FEC8083AE
:1015C00010923102E0912D02F0912E0286E080838C
:1015D000E0912B02F0912C02808180618083E09168
:1015E0002B02F0912C02808188608083E0912B0295
:1015F000F0912C02808180688083E0912B02F09131
:101600002C0280818F7D80831092CF011092CE01B9
:101610001092CD011092CC010E94B80282E891E0B4
:101620009093CB018093CA0183E891E09093C90124
:101630008093C80188E00E948C0089E00E948C00A1
:101640008CE00E948C008BE00E948C008AE00E945B
:101650008C0083E00E948C0084E00E948C0082E079
:101660000E948C0086E00E948C0085E00E948C0025
:1016700087E00E948C001092D7011092D601109240
:101680000B0210920A0210920902109208021092A4
:101690000F0210920E0265E170E0709307026093F2
:1016A00006024AE050E0509305024093040223E012
:1016B00030E0309303022093020286E090E09093A2
:1016C0000102809300027093FF016093FE0150932A
:1016D000FD014093FC013093FB012093FA019093AC
:1016E000F9018093F8017093F7016093F60150932C
:1016F000F5014093F4013093F3012093F2019093AC
:10170000E9018093E8017093EF016093EE0150933B
:10171000ED014093EC013093EB012093EA019093AB
:10172000F1018093F0011092800080E180938100AC
:1017300083E08093D2018FB78093D301F89484ED36
:1017400090E39093D1018093D00190938700809390
:1017500086008091D3018FBF80918100887F809324
:101760008100909181002091D201922B9093810071
:101770008FE193E09093D5018093D40181E0809331
:101780006F0080918100822B8093810060E083E074
:101790000E94FD0060E082E00E94FD0060E084E0C5
:1017A0000E94FD0060E086E00E94FD0060E087E0AE
:1017B0000E94FD0060E085E00E94FD0060E089E09D
:1017C0000E94FD0060E088E00E94FD008FEF90E045
:1017D0009093E7018093E6019093E5018093E40103
:1017E0009093E3018093E2019093E1018093E00103
:1017F0009093DF018093DE019093DD018093DC0103
:101800009093DB018093DA019093D9018093D80102
:1018100081E090E00E945F0780E0882E80E0982EB3
:10182000CFEFD0E005E110E09AE0E92EF12C23E0C3
:10183000C22ED12C36E0A32EB12C82E090E00E9483
:101840005F078FE00E94D400892B09F05FC01092DF
:101850000F0210920E0210920B0210920A021092C6
:101860000902109208021093070200930602F092F8
:101870000502E0920402D0920302C0920202B092EA
:101880000102A09200021093FF010093FE01F0926A
:10189000FD01E092FC01D092FB01C092FA01B092EE
:1018A000F901A092F8011093F7010093F601F0926C
:1018B000F501E092F401D092F301C092F201B092EE
:1018C000F101A092F0011093EF010093EE01F0926C
:1018D000ED01E092EC01D092EB01C092EA01B092EE
:1018E000E901A092E80180910E0290910F02019708
:1018F00009F487C08114910409F49FCF0E94EE017E
:10190000882309F49ACF0E94000097CF8EE00E94AE
:10191000D400892B09F0ECC081E090E090930F0295
:1019200080930E0210920D0210920C02D093E701E8
:10193000C093E601D093E501C093E401D093E301A5
:10194000C093E201D093E101C093E001D093DF01A5
:10195000C093DE01D093DD01C093DC01D093DB01A5
:10196000C093DA01D093D901C093D80160E089E037
:101970000E94FD0060E082E00E94FD0060E084E0E3
:101980000E94FD0061E083E00E94FD0060E085E0D0
:101990000E94FD0060E087E00E94FD0061E086E0BB
:1019A0000E94FD0060E088E00E94FD0068EB7BE0A3
:1019B00080E090E00E94500160E089E00E94FD001C
:1019C00061E082E00E94FD0060E084E00E94FD0092
:1019D00060E083E00E94FD0061E085E00E94FD0080
:1019E00060E087E00E94FD0060E086E00E94FD006C
:1019F00061E088E00E94FD008EE00E94D400892B07
:101A0000D9F381E10E94D400892B09F073CF64E1FE
:101A100070E080E090E00E94500181E10E94D400DB
:101A2000892B09F067CF80910C0290910D020196ED
:101A3000823091050CF089C090930D0280930C02C6
:101A400060E089E00E94FD0060E082E00E94FD000D
:101A500060E084E00E94FD0061E083E00E94FD0000
:101A600060E085E00E94FD0060E087E00E94FD00EC
:101A700061E086E00E94FD0060E088E00E94FD00D9
:101A800068EB7BE080E090E00E94500180910C02C6
:101A900090910D02892B09F05DC060E089E00E9401
:101AA000FD0061E082E00E94FD0060E084E00E94B1
:101AB000FD0060E083E00E94FD0061E085E00E949F
:101AC000FD0060E087E00E94FD0060E086E00E948B
:101AD000FD0061E088E00E94FD0081E10E94D400E9
:101AE000892B09F007CF81E090E00E945F07F5CFD6
:101AF00080E10E94D400892B09F0F5CE82E090E0CD
:101B000090930F0280930E02D093E701C093E601F9
:101B1000D093E501C093E401D093E301C093E201C7
:101B2000D093E101C093E001D093DF01C093DE01C7
:101B3000D093DD01C093DC01D093DB01C093DA01C7
:101B4000D093D901C093D801CECE10920D0210923D
:101B50000C0276CF61E089E00E94FD0060E082E047
:101B60000E94FD0061E084E00E94FD0060E083E0EF
:101B70000E94FD0060E085E00E94FD0061E087E0DA
:101B80000E94FD0060E086E00E94FD0060E0A2CFC0
:101B900097FB072E16F4009407D077FD09D00E941A
:101BA000DC0D07FC05D03EF4909581959F4F08957C
:101BB000709561957F4F0895AA1BBB1B51E107C02B
:101BC000AA1FBB1FA617B70710F0A61BB70B881FCD
:101BD000991F5A95A9F780959095BC01CD0108955C
:101BE000EE0FFF1F0590F491E02D0994F894FFCFBC
:101BF000C000F900A400B000990092008200F80033
:101C0000800090000000000024028401B1017102F4
:101C1000E201C001D401000000000B0300031C031B
:081C2000D602F902E602D70228
:107E0000112484B714BE81FFF0D085E080938100F7
:107E100082E08093C00088E18093C10086E0809377
:107E2000C20080E18093C4008EE0C9D0259A86E02C
:107E300020E33CEF91E0309385002093840096BBD3
:107E4000B09BFECF1D9AA8958150A9F7CC24DD24C4
:107E500088248394B5E0AB2EA1E19A2EF3E0BF2EE7
:107E6000A2D0813461F49FD0082FAFD0023811F036
:107E7000013811F484E001C083E08DD089C08234E0
:107E800011F484E103C0853419F485E0A6D080C0E4
:107E9000853579F488D0E82EFF2485D0082F10E0AE
:107EA000102F00270E291F29000F111F8ED06801E7
:107EB0006FC0863521F484E090D080E0DECF843638
:107EC00009F040C070D06FD0082F6DD080E0C81688
:107ED00080E7D80618F4F601B7BEE895C0E0D1E017
:107EE00062D089930C17E1F7F0E0CF16F0E7DF06D8
:107EF00018F0F601B7BEE89568D007B600FCFDCFD4
:107F0000A601A0E0B1E02C9130E011968C91119780
:107F100090E0982F8827822B932B1296FA010C0160
:107F200087BEE89511244E5F5F4FF1E0A038BF0790
:107F300051F7F601A7BEE89507B600FCFDCF97BE46
:107F4000E89526C08437B1F42ED02DD0F82E2BD052
:107F50003CD0F601EF2C8F010F5F1F4F84911BD097
:107F6000EA94F801C1F70894C11CD11CFA94CF0C13
:107F7000D11C0EC0853739F428D08EE10CD085E9AC
:107F80000AD08FE07ACF813511F488E018D01DD067
:107F900080E101D065CF982F8091C00085FFFCCF94
:107FA0009093C60008958091C00087FFFCCF809118
:107FB000C00084FD01C0A8958091C6000895E0E648
:107FC000F0E098E1908380830895EDDF803219F02E
:107FD00088E0F5DFFFCF84E1DECF1F93182FE3DFCA
:107FE0001150E9F7F2DF1F91089580E0E8DFEE27F6
:047FF000FF270994CA
:027FFE00040479
:00000001FF
